:100C8B0066616E206F6E0066616E206F6666004F48
:100C9B0070656E20545600436C6F7365205456007C
:100CAB00686561746572206F6E006865617465724A
:100CBB00206F6666006F6E20616C6C006F6666203D
:100CCB00616C6C004143206F6E004143206F666680
:010CDB000018
:050CDC00120D1D7F0A4E
:100CE100E4FDFCEFFBC3ED9BEC94005015E4FBFA33
:100CF1000BBB00010ABA04F8BBFBF50DBD00010CEA
:020D010080E18F
:010D030022CD
:100D1D008F90C2A4C2A5D2A67F01120CE1C2A62259
:100D2D008F90D2A4C2A5D2A67F01120CE1C2A62239
:100D04007F38120CDC7F0F120CDC7F01120CDC7FAD
:090D140081120D1D7F0A020CE1A1
:080D49008F993099FDC2992237
:040C1C00FB7D07FC59
:0A0C20008B658A6689678C688D6910
:100C2A00E4F56AF56BE56924FFFFE56834FFFEC366
:100C3A00E56B9FEE6480F8E56A6480985039AB658D
:100C4A00AA66A967856B82856A83120BEFFF3395C3
:100C5A00E0FE120D49AB65AA66A967856B82856AB3
:100C6A0083120BEFFF120D2D7F14120CE1056BE5B9
:100C7A006B70B2056A80AE7FC8120CE17F01020D6B
:010C8A001D4C
:1008000078097C007D007BFF7A0C798B7E007F0766
:10081000120BC978107C007D007BFF7A0C79927EE8
:10082000007F08120BC978187C007D007BFF7A0CD2
:10083000799A7E007F08120BC978207C007D007BAE
:10084000FF7A0C79A27E007F09120BC978297C00FF
:100850007D007BFF7A0C79AB7E007F0A120BC97892
:10086000337C007D007BFF7A0C79B57E007F0B1214
:100870000BC9783E7C007D007BFF7A0C79C07E003E
:100880007F07120BC978457C007D007BFF7A0C79CD
:10089000C77E007F08120BC9784D7C007D007BFF6E
:1008A0007A0C79CF7E007F06120BC978537C007DCD
:1008B000007BFF7A0C79D57E007F07120BC9E4F527
:1008C0005AF55BF55CF55DF55EF55FF560F561F594
:1008D00062F9759850758920758DFDD28E120D04C0
:1008E000E4F5A0C2B73098FD859908C2987409252F
:1008F0005AF8E665087025055AE55A6406701DD257
:10090000A17A007909120C1CE4F55AF55BF55CF547
:100910005DF55EF55FF560F561F562F9741029F833
:10092000E66508702709E964077021C2A1FB7A0017
:1009300079107D08FC120C20E4F55AF55BF55CF5A6
:100940005DF55EF55FF560F561F562F97418255B9C
:10095000F8E665087029055BE55B64077021D2A0A5
:10096000FB7A0079187D08FC120C20E4F55AF55B3F
:10097000F55CF55DF55EF55FF560F561F562F974BE
:10098000202562F8E6650870290562E56264087052
:1009900021C2A0FB7A0079207D09FC120C20E4F52D
:1009A0005AF55BF55CF55DF55EF55FF560F561F5B3
:1009B00062F97429255CF8E665087029055CE55C38
:1009C00064097021D2A2FB7A0079297D0AFC120CFD
:1009D00020E4F55AF55BF55CF55DF55EF55FF560D5
:1009E000F561F562F974332560F8E665087029054C
:1009F00060E560640A7021C2A2FB7A0079337D0B46
:100A0000FC120C20E4F55AF55BF55CF55DF55EF53E
:100A10005FF560F561F562F9743E255DF8E66508FD
:100A2000702D055DE55D64067025D2A0D2A2D2A12D
:100A3000D2A3D2B77A00793E120C1CE4F55AF55BCA
:100A4000F55CF55DF55EF55FF560F561F562F974ED
:100A500045255EF8E665087031055EE55E64077061
:100A600029C2A0C2A2C2A1C2A3C2B7FB7A00794523
:100A70007D08FC120C20E4F55AF55BF55CF55DF59C
:100A80005EF55FF560F561F562F9744D255FF8E696
:100A900065087029055FE55F64057021D2B7FB7AB0
:100AA00000794D7D06FC120C20E4F55AF55BF55CEF
:100AB000F55DF55EF55FF560F561F562F974532556
:100AC00061F8E6650860030208E50561E561640612
:100AD00060030208E5C2B7FB7A0079537D07FC1278
:100AE0000C20E4F55AF55BF55CF55DF55EF55FF518
:090AF00060F561F562F90208E508
:03000000020D3DB1
:0C0D3D00787FE4F6D8FD75816B02080099
:100AF900E709F608DFFA8046E709F208DFFA803EDF
:100B090088828C83E709F0A3DFFA8032E309F608CB
:100B1900DFFA8078E309F208DFFA807088828C8333
:100B2900E309F0A3DFFA806489828A83E0A3F608E7
:100B3900DFFA805889828A83E0A3F208DFFA804CC1
:100B490080D280FA80C680D4806980F28033801098
:100B590080A680EA809A80A880DA80E280CA803301
:100B690089828A83ECFAE493A3C8C582C8CCC58379
:100B7900CCF0A3C8C582C8CCC583CCDFE9DEE78049
:100B89000D89828A83E493A3F608DFF9ECFAA9F0C8
:100B9900EDFB2289828A83ECFAE0A3C8C582C8CC1E
:100BA900C583CCF0A3C8C582C8CCC583CCDFEADE37
:100BB900E880DB89828A83E493A3F208DFF980CC99
:100BC90088F0EF60010E4E60C388F0ED2402B40492
:100BD9000050B9F582EB2402B4040050AF23234539
:060BE9008223900B49730A
:100BEF00BB010CE58229F582E5833AF583E02250BB
:100BFF0006E92582F8E622BBFE06E92582F8E22205
:0D0C0F00E58229F582E5833AF583E493221E
:00000001FF
